:100000000C942A000C943C000C943C000C943C0092
:100010000C943C000C943C000C943C000C943C0070
:100020000C943C000C943C000C943C000C943C0060
:100030000C943C000C943C000C943C000C943C0050
:100040000C943C000C943C000C943C000C943C0040
:100050000C943C0011241FBECFE5D8E0DEBFCDBF1D
:1000600020E0A0E6B0E001C01D92A036B207E1F7A3
:100070000E9453000C940E010C94000087E690E05F
:100080000E94FC000895CF93DF931F92CDB7DEB797
:1000900080E38983CE0101960E94080189810F9037
:1000A000DF91CF91089565E080E00E94C9000E9431
:1000B0003E000E9443008033E1F30E94E500F9CF47
:1000C0008130F9F030F08230A1F1833009F449C079
:1000D0000895413041F018F0423051F008958AB34C
:1000E000682B6ABB08958AB3609568236ABB08953C
:1000F0008AB3962F909589238ABB8BB3682B6BBBF1
:100100000895413041F018F0423051F0089587B31E
:10011000682B67BB089587B36095682367BB089514
:1001200087B3962F9095892387BB88B3682B68BBCC
:100130000895413041F018F0423051F0089584B3F1
:10014000682B64BB089584B36095682364BB0895ED
:1001500084B3962F9095892384BB85B3682B65BBA8
:100160000895413041F018F0423051F0089581B3C4
:10017000682B61BB089581B36095682361BB0895C6
:1001800081B3962F9095892381BB82B3682B62BB84
:100190000895282F30E0220F331F220F331F2061D4
:1001A0002DB980FD03C08EB181608EB98DB1669589
:1001B000682B6DB940E060EB81E00E94600041E097
:1001C00060E481E00E94600008959DB190649DB953
:1001D0008FB980E090E005C0019625E02A95F1F7FF
:1001E0000000779904C0803127E29207A8F38FB10D
:1001F0008DB18F7B8DB908951BB82AB120612AB9C2
:100200002AB128602AB926E820BD89B990BD089591
:100210005F9B03C02CB1FC0120830895F894FFCFAD
:00000001FF
