S0110000534C4156455F4156522E7372656350
S11300000C942A000C9434000C9434000C943400A6
S11300100C9434000C9434000C9434000C9434008C
S11300200C9434000C9434000C9434000C9434007C
S11300300C9434000C9434000C9434000C9434006C
S11300400C9434000C9434000C9434000C9434005C
S11300500C94340011241FBECFE5D8E0DEBFCDBF21
S11300600E9465000C944D010C94000040E061E096
S113007080E00E948A0040E062E080E00E948A0002
S11300800895882319F0813081F00895662339F0AA
S11300906130D1F441E080E00E94F300089540E033
S11300A061E080E00E94F3000895662341F061302E
S11300B059F441E062E080E00E94F300089540E0DA
S11300C062E080E00E94F30008950E942F010E94E4
S11300D036000E943D01823371F018F4813331F00F
S11300E0F8CF833369F0843381F0F3CF60E080E0AC
S11300F00E944100EECF61E080E00E944100E9CF20
S113010060E081E00E944100E4CF61E081E00E9470
S11301104100DFCF8130F9F030F08230A1F183303B
S113012009F449C00895413041F018F0423051F0CB
S113013008958AB3682B6ABB08958AB360956823CF
S11301406ABB08958AB3962F909589238ABB8BB393
S1130150682B6BBB0895413041F018F0423051F0E8
S1130160089587B3682B67BB089587B360956823A8
S113017067BB089587B3962F9095892387BB88B36F
S1130180682B68BB0895413041F018F0423051F0BB
S1130190089584B3682B64BB089584B36095682381
S11301A064BB089584B3962F9095892384BB85B34B
S11301B0682B65BB0895413041F018F0423051F08E
S11301C0089581B3682B61BB089581B3609568235A
S11301D061BB089581B3962F9095892381BB82B327
S11301E0682B62BB0895813099F028F08230E9F0E1
S11301F0833041F10895442331F0413079F58BB3D4
S1130200682B6BBB08958BB3609568236BBB089513
S1130210442331F0413011F588B3682B68BB08954D
S113022088B36095682368BB0895442331F0413056
S1130230A9F485B3682B65BB089585B360956823DD
S113024065BB0895442331F0413041F482B3682BF7
S113025062BB089582B36095682362BB089541E050
S113026060EB81E00E948A0040E060E481E00E944B
S11302708A008DB180648DB9089580E090E005C056
S1130280019625E02A95F1F70000779904C08031A2
S111029027E29207A8F38FB10895F894FFCFE8
S9030000FC
